:020000040800F2
:100000000020002089040008E50E0008EB0E00081F
:1000100000000000000000000000000000000000E0
:10002000000000000000000000000000F10E0008C9
:100030000000000000000000FB0E0008050F000893
:10004000D9040008D9040008D9040008D90400081C
:10005000D9040008D9040008D9040008D90400080C
:1000600000000000D9040008D9040008D9040008E1
:10007000D9040008D904000800000000D9040008D1
:1000800000000000D904000800000000000000008B
:10009000D904000800000000D9040008D9040008B1
:1000A000D9040008D9040008D9040008D9040008BC
:1000B000150F0008D904000800000000000000002F
:1000C00010B5064C2378002B07D1054B002B02D02E
:1000D000044800E000BF0123237010BD0C00002085
:1000E00000000000F83D0008044B10B5002B03D0C1
:1000F0000349044800E000BF10BDC04600000000F6
:1001000010000020F83D0008002243088B4274D301
:1001100003098B425FD3030A8B4244D3030B8B4208
:1001200028D3030C8B420DD3FF22090212BA030C11
:100130008B4202D31212090265D0030B8B4219D3F2
:1001400000E0090AC30B8B4201D3CB03C01A524112
:10015000830B8B4201D38B03C01A5241430B8B425A
:1001600001D34B03C01A5241030B8B4201D30B0343
:10017000C01A5241C30A8B4201D3CB02C01A52416A
:10018000830A8B4201D38B02C01A5241430A8B422D
:1001900001D34B02C01A5241030A8B4201D30B0216
:1001A000C01A5241CDD2C3098B4201D3CB01C01A30
:1001B000524183098B4201D38B01C01A524143093A
:1001C0008B4201D34B01C01A524103098B4201D328
:1001D0000B01C01A5241C3088B4201D3CB00C01A95
:1001E000524183088B4201D38B00C01A524143080D
:1001F0008B4201D34B00C01A5241411A00D2014632
:10020000524110467047FFE701B5002000F006F8A4
:1002100002BDC0460029F7D076E770477047C04658
:10022000002B11D1002A0FD1002900D1002802D0C3
:100230000021C943081C07B4024802A140180290DB
:1002400003BDC046D9FFFFFF03B4684601B502985D
:1002500000F030F8019B9E4602B00CBC7047C046CF
:10026000F0B5CE46474615042D0C2E0080B5070488
:10027000140C3F0C9946030C7E435D436743634374
:100280007F19340CE4199C46A54203D980235B02F4
:100290009846C4444B46514343433604360C250C20
:1002A00024046544A4195918491920000CBC90462F
:1002B0009946F0BDF0B557464E464546DE46E0B598
:1002C000040083B00D00924699468B422FD82CD063
:1002D0004946504600F0AEF829000600200000F024
:1002E000A9F8331A9846203B9B4600D574E0534644
:1002F0005A4693401F005346424693401E00AF4269
:1003000029D826D05B46A41BBD41002B00DA79E03A
:10031000002200230092019301235A469340019347
:10032000012342469340009319E08242D0D9002233
:100330000023009201930C9B002B01D01C605D6098
:100340000098019903B03CBC90469946A246AB4642
:10035000F0BDA342D6D90022002300920193434668
:10036000002BE8D0FB0772081A4346467B080EE0D4
:10037000AB4201D1A2420CD8A41A9D4101202419FC
:100380006D410021013E24184D41002E06D0AB42A4
:10039000EED9013E24196D41002EF8D15B4600983C
:1003A000019900196941002B22DB2B005A46D340EA
:1003B0002A004446E2401C005B461500002B2CDB63
:1003C00026009E40330026004746BE403200801A79
:1003D000994100900191AEE7424620239B1A524674
:1003E000DA40414613004A468A4017001F4382E71D
:1003F000424620239B1A2A0046469A402300F34097
:100400001343D5E74246202300219B1A0022009186
:1004100001920122DA40019282E74246202326001F
:100420009B1ADE402F00B446974066463B0033439C
:10043000C9E7C04610B5002903D100F007F8203005
:1004400002E0081C00F002F810BDC0461C21012388
:100450001B04984201D3000C10391B0A984201D3A7
:10046000000A08391B09984201D30009043902A285
:10047000105C40187047C0460403020201010101EC
:1004800000000000000000000D4885460D480E49A0
:100490000E4A002302E0D458C4500433C4188C42DE
:1004A000F9D30B4A0B4C002301E013600432A24243
:1004B000FBD300F03BFD03F073FC00F0ADFAFEE768
:1004C00000200020000000200C000020B03E0008AA
:1004D0000C0000200C010020FEE780B500AF00F00A
:1004E00001F8FCE780B582B000AFFB1D180000F0FA
:1004F0003DFA031E00D0A3E0FB1D1B78AA2B00D001
:10050000A0E0BB1D180000F031FA031E00D09BE0F4
:100510007B1D00221A703B1D00221A70BB1D1B7828
:10052000082B00D986E09A004F4BD3181B689F46D2
:100530003B1D180000F01AFA031E00D086E03B1D98
:100540001B78180000F092F874E03B1D180000F0D2
:100550000DFA031E00D07BE03B1D1B78180000F055
:10056000D3F867E03B1D180000F000FA031E00D02E
:1005700070E03B1D1B78180000F018F95AE03B1D95
:10058000180000F0F3F9031E66D13B1D1B7818001C
:1005900000F06BF94EE0BB1C1900002000F094F94C
:1005A000BB1C1B881B0A9BB2DAB23B1D1A703B1D99
:1005B000180000F0F1F9BB1C1B88DAB23B1D1A7061
:1005C0003B1D180000F0E8F934E0BB1C19000120C5
:1005D00000F07AF9BB1C1B881B0A9BB2DAB23B1DE8
:1005E0001A703B1D180000F0D7F9BB1C1B88DAB24B
:1005F0003B1D1A703B1D180000F0CEF91AE03B1DA0
:10060000180000F0B3F9031E28D13B1D1B78190018
:10061000002000F0D5F90DE03B1D180000F0A6F910
:10062000031E1DD13B1D1B781900012000F0C8F9E5
:1006300000E0C0467B1D180000F0AEF9C04610E097
:10064000C0460EE0C0460CE0C0460AE0C04608E0E6
:10065000C04606E0C04604E0C04602E0C04600E0F6
:10066000C046BD4602B080BD103E000880B582B0D5
:1006700000AF0200FB1D1A70FB1D1B7810221340F7
:100680005A1E9341DBB21A001E4B8021180001F064
:1006900019FCFB1D1B78082213405A1E9341DBB244
:1006A0001A00184B0821180001F00CFCFB1D1B78E8
:1006B000042213405A1E9341DBB21A00114B102141
:1006C000180001F0FFFBFB1D1B78022213405A1E8D
:1006D0009341DBB21A000B4B4021180001F0F2FBF2
:1006E000FB1D1B78012213405A1E9341DBB21A00F6
:1006F000044B2021180001F0E5FBC046BD4602B0C6
:1007000080BDC0460004005080B582B000AF02003A
:10071000FB1D1A70FB1D1B78102213405A1E9341BB
:10072000DBB21A00A023DB051021180001F0CAFB80
:10073000FB1D1B78082213405A1E9341DBB21A009E
:10074000A023DB052021180001F0BCFBFB1D1B785A
:10075000042213405A1E9341DBB21A00A023DB058A
:100760004021180001F0AEFBFB1D1B780222134054
:100770005A1E9341DBB21A00A023DB05802118002A
:1007800001F0A0FBFB1D1B78012213405A1E934170
:10079000DBB21A00044B0121180001F093FBC046A4
:1007A000BD4602B080BDC0460004005080B584B094
:1007B00000AF0200FB1D1A7080235900A023DB0547
:1007C0000022180001F07EFB80239900A023DB05A6
:1007D0000022180001F076FB0023FB6036E0FB6886
:1007E000042B08DD8023D900A023DB05002218009C
:1007F00001F068FB11E0FB1D1A78FB681A41130039
:10080000012213405A1E9341DBB21A008023D90003
:10081000A023DB05180001F055FB80239900A023DD
:10082000DB050122180001F04DFB012000F0F4FB74
:1008300080239900A023DB050022180001F042FB71
:10084000012000F0E9FBFB680133FB60FB68072B2C
:10085000C5DD80235900A023DB050122180001F02B
:1008600031FBC046BD4604B080BD80B582B000AF4C
:100870000200FB1D1A70FB1D1B78002B10D080237B
:100880001901A023DB050022180001F01BFB8023C7
:100890005901A023DB050122180001F013FB0FE032
:1008A00080231901A023DB050122180001F00AFBB7
:1008B00080235901A023DB050022180001F002FB70
:1008C000C046BD4602B080BD80B586B000AF020014
:1008D0003960FB1D1A701723FB1800221A700C23B5
:1008E000FB18180008231A00002103F07DFAFB1DF5
:1008F0001B78002B04D00C23FB1801221A6003E0A4
:100900000C23FB18174A1A600C23FB188022520193
:100910005A600C23FA18144B1100180000F04AFE1C
:10092000031E03D01723FB1801221A700E4B180068
:1009300000F008FD0C4B0121180000F099FD0A4B56
:10094000180000F02BFE03009AB23B681A80064B99
:10095000180000F04BFD1723FB181B781800BD464C
:1009600006B080BD02000004AC00002080B582B05B
:1009700000AF786001235B4279680648012202F0EB
:1009800077FA03005A1E9341DBB21800BD4602B04D
:1009900080BDC0462800002080B582B000AF7860DE
:1009A000796806480123012202F0BAF903005A1EB1
:1009B0009341DBB21800BD4602B080BD2800002084
:1009C00080B582B000AF0200FB1D1A70BB1D0A1C6F
:1009D0001A70FB1D1B78002B0CD0BB1D1B785A1EF8
:1009E0009341DBB21A008023DB010A48190001F0B1
:1009F00069FA0BE0BB1D1B785A1E9341DBB21A004B
:100A000080231B020348190001F05CFAC046BD4672
:100A100002B080BD0008005080B500AF00F08CFA35
:100A200000F00AF800F020F900F07CF800F0ECF893
:100A3000FFF753FDFCE7000080B59AB000AF342308
:100A4000FB18180034231A00002103F0CDF92023ED
:100A5000FB18180014231A00002103F0C5F93B1DF0
:100A600018001C231A00002103F0BEF92B4B2B4A5F
:100A700012682B490A40802109010A431A60342375
:100A8000FB1810221A603423FB1801229A613423C8
:100A9000FB180022DA613423FB18A02212021A622A
:100AA0003423FB1800225A623423FB18180001F08B
:100AB00027FA031E01D000F06DF92023FB180F2246
:100AC0001A602023FB1800225A602023FB18002202
:100AD0009A602023FB180022DA602023FB180022F2
:100AE0001A612023FB180021180001F073FD031E7A
:100AF00001D000F04FF93B1D02221A603B1D00227D
:100B0000DA603B1D180001F085FF031E01D000F0E4
:100B100041F9C046BD461AB080BDC04600700040D5
:100B2000FFE7FFFF80B582B000AF3B00180008234D
:100B30001A00002103F058F9304B314A1A602F4B4C
:100B40000022DA632D4BC02212065A602B4B002282
:100B50009A602A4B00229A63284B01221A61274B84
:100B60000022DA60254B202200219954234B2122B8
:100B700000219954214B00229A62204BC222FF325D
:100B80005A621E4B2C22002199541C4B04225A619C
:100B90001A4B00221A63194B00229A61174B01224B
:100BA0005A63164B0022DA61144B180000F056FA13
:100BB000031E01D000F0EEF83B0001221A603B005A
:100BC000802252015A603A000C4B1100180000F0CC
:100BD000F1FC031E01D000F0DDF83B00094A1A6069
:100BE0003A00064B1100180000F0E4FC031E01D08F
:100BF00000F0D0F8C046BD4602B080BDAC00002079
:100C0000002401400200000480B500AF144B154AD7
:100C10001A60134BE12252025A60114B00229A6073
:100C20000F4B0022DA600E4B00221A610C4B0C2293
:100C30005A610B4B00229A61094B0022DA61084B82
:100C400000221A62064B00225A62054B180002F07D
:100C500013F8031E01D000F09DF8C046BD4680BDCC
:100C6000280000200044004080B588B000AF0C236D
:100C7000FB18180014231A00002103F0B5F8414BAB
:100C8000404AD26A04210A43DA623E4BDB6A0422FC
:100C90001340BB60BB683B4B3A4AD26A01210A430E
:100CA000DA62384BDB6A012213407B607B68354B8C
:100CB000344AD26A02210A43DA62324BDB6A0222E8
:100CC00013403B603B68C0231B022F4800221900E1
:100CD00001F0F8F82D49A023DB050022180001F0EF
:100CE000F1F82B4B0022FB21180001F0EBF80C234C
:100CF000FB18C02212021A600C23FB1801225A6052
:100D00000C23FB1800229A600C23FB180022DA60E7
:100D10000C23FB181C4A1900100000F05DFF0C2387
:100D2000FB181A4A1A600C23FB1801225A600C2384
:100D3000FB1800229A600C23FB180022DA600C23B7
:100D4000FA18A023DB051100180000F045FF0C2362
:100D5000FB18FB221A600C23FB1801225A600C239B
:100D6000FB1800229A600C23FB180022DA600C2387
:100D7000FB18074A1900100000F02EFFC046BD46C0
:100D800008B080BD0010024000080050F09F000035
:100D90000004005080B500AF72B6FEE780B500AF2A
:100DA000074B074A526B01210A435A63044B044A1A
:100DB000926B802149050A439A63C046BD4680BDB7
:100DC0000010024080B588B000AF78600C23FB189B
:100DD000180014231A00002103F006F87B681B6832
:100DE000164A934226D1164B154A526B8021890030
:100DF0000A435A63124B124AD26A01210A43DA6249
:100E00000F4BDB6A01221340BB60BB680C23FB184D
:100E100003221A600C23FB1803225A600C23FB18D0
:100E200000229A600C23FA18A023DB051100180099
:100E300000F0D2FEC046BD4608B080BD002401408F
:100E40000010024080B588B000AF78600C23FB181A
:100E5000180014231A00002102F0C6FF7B681B68EB
:100E60001E4A934236D11E4B1D4A926B8021890245
:100E70000A439A631A4B1A4AD26A01210A43DA6278
:100E8000174BDB6A01221340BB60BB680C23FB18C5
:100E90000C221A600C23FB1802225A600C23FB1848
:100EA00000229A600C23FB180322DA600C23FB1843
:100EB00004221A610C23FA18A023DB051100180084
:100EC00000F08AFE002200211C2000F0C9FD1C2039
:100ED00000F0DCFDC046BD4608B080BD00440040C7
:100EE0000010024080B500AFFEE780B500AFFEE71E
:100EF00080B500AFC046BD4680BD80B500AFC046DE
:100F0000BD4680BD80B500AF00F06AF8C046BD4662
:100F100080BD000080B500AF034B180002F096F8CA
:100F2000C046BD4680BDC0462800002080B500AF49
:100F3000C046BD4680BD000080B582B000AFFB1D3D
:100F400000221A700B4B0B4A126840210A431A60A8
:100F5000002000F011F8031E03D0FB1D01221A70BF
:100F600001E0FFF71BFFFB1D1B781800BD4602B018
:100F700080BDC0460020024090B583B000AF7860CD
:100F8000144B1C68144B1B781900FA239800FFF7C8
:100F9000BBF8030019002000FFF7B6F803001800A3
:100FA00000F084FD031E01D001230FE07B68032BBA
:100FB0000BD8796801235B420022180000F050FD35
:100FC000064B7A681A60002300E001231800BD4632
:100FD00003B090BD000000200800002004000020A5
:100FE00080B500AF054B1B781A00054B1B68D21863
:100FF000034B1A60C046BD4680BDC04608000020B5
:101000000801002080B500AF024B1B681800BD46E8
:1010100080BDC0460801002080B584B000AF786074
:10102000FFF7F0FF0300BB607B68FB60FB680133E8
:1010300005D0094B1B781A00FB689B18FB60C04663
:10104000FFF7E0FF0200BB68D21AFB689A42F7D3B1
:10105000C046BD4604B080BD0800002090B583B0F6
:1010600000AF78607B68002B01D1012359E17B68D8
:101070005B6D002B0AD17B6800229A657B68502249
:10108000002199547B681800FFF79CFE7B685B6D1C
:1010900010221340102B05D07B681B689B6804222C
:1010A00013400BD07B685B6D10221A437B685A6536
:1010B0007B68502200219954012332E17B685B6DEB
:1010C0009A4A134002221A437B685A657B681B6860
:1010D0009B6803221340012B08D17B681B681B68A7
:1010E00001221340012B01D1012300E00023002B3A
:1010F00049D17B685A68C0231B069A420BD07B6893
:101100005A688023DB059A4205D07B685A688023A1
:101110001B069A4211D17B681B687A6812681269B3
:10112000920092081A617B681B687A6812681169DC
:101130007A6852680A431A6114E07B681B687A680F
:1011400012681269920092081A61794B784A126803
:1011500078490A401A60764A754B19687B685B6863
:101160000B4313607B681B687A681268D268182189
:101170008A43DA607B681B687A681268D1687A688B
:1011800092680A43DA606A4B694A12686A490A40FF
:101190001A60674A664B19687B685B6B5B060B439A
:1011A00013607B681B689A6880235B05134008D135
:1011B0007B681B687A6812689268802149050A4337
:1011C0009A607B681B687A681268D2685B490A403B
:1011D000DA607B681B687A681268D1687A68D068C0
:1011E0007A681269022A01D1042200E00022104329
:1011F0007A682024125D520310437A682C24125D11
:10120000520010437A68126B10437A689269920315
:1012100010437A68D269D20302430A43DA607B68DA
:101220005A6AC223FF339A420BD07B681B687A68E4
:101230001268D1687A68506A7A68926A02430A43EF
:10124000DA607B6821229B5C012B1AD17B6820220B
:101250009B5C002B09D17B681B687A681268D26896
:10126000802149020A43DA600BE07B685B6D202233
:101270001A437B685A657B689B6D01221A437B6821
:101280009A657B68DB6B012B1FD17B681B687A68D2
:10129000126812692A490A401A617B681B687A68D9
:1012A000126811697A68106C7A68526C10437A6817
:1012B000926C02430A431A617B681B687A68126861
:1012C000126901210A431A610EE07B681B681B69E1
:1012D00001221340012B07D17B681B687A681268D2
:1012E000126901218A431A617B681B687A68126857
:1012F000526907218A435A617B681B687A681268C1
:1013000051697A68926B0A435A617B6800229A6538
:101310007B685B6D0322934301221A437B685A6505
:1013200000231800BD4603B090BDC046FDFEFFFF80
:1013300008270140FFFFC3FFFFFFFFFD1902FEFF6B
:1013400003FCFFFF90B585B000AF78600F23FB185A
:1013500000221A707B681B689B680422134038D1F6
:101360007B6850229B5C012B01D1022338E07B6813
:101370005022012199547B68DB69012B07D00F2390
:10138000FC187B68180000F09BF9030023700F2302
:10139000FB181B78002B20D17B685B6D124A134031
:1013A000802252001A437B685A657B6800229A6546
:1013B0007B685022002199547B681B681C221A60AC
:1013C0007B681B687A681268926804210A439A60F5
:1013D00003E00F23FB1802221A700F23FB181B785F
:1013E0001800BD4605B090BDFEF0FFFF90B585B07A
:1013F00000AF78600F23FB1800221A707B68502220
:101400009B5C012B01D102232CE07B68502201213F
:1014100099540F23FC187B68180000F011FA0300A0
:1014200023700F23FB181B78002B14D10F23FC18FB
:101430007B68180000F0A4F9030023700F23FB1849
:101440001B78002B07D17B685B6D084A1340012293
:101450001A437B685A657B685022002199540F23F8
:10146000FB181B781800BD4605B090BDFEFEFFFFBF
:1014700080B584B000AF786039600023BB60002382
:10148000FB607B685B69082B02D10823FB6014E0DA
:101490007B681B68DB6801221340012B0BD17B6842
:1014A0005B6D20221A437B685A657B6850220021BD
:1014B000995401236CE00C23FB60FFF7A3FD0300AC
:1014C000BB6019E03B68013316D03B68002B07D0A6
:1014D000FFF798FD0200BB68D21A3B689A420BD90D
:1014E0007B685B6D04221A437B685A657B685022D7
:1014F0000021995403234BE07B681B681B68FA6842
:101500001340DFD07B685B6D802292001A437B68BA
:101510005A657B681B68DA68C0231B0113402ED113
:101520007B6820229B5C002B29D17B681B681B6891
:1015300008221340082B22D17B681B689B68042279
:10154000134010D17B681B687A68126852680C21BE
:101550008A435A607B685B6D0F4A134001221A432D
:101560007B685A650BE07B685B6D20221A437B68C1
:101570005A657B689B6D01221A437B689A657B687C
:101580009B69002B03D17B681B680C221A60002327
:101590001800BD4604B080BDFEFEFFFF80B582B0DE
:1015A00000AF78607B681B681B6C1800BD4602B0FA
:1015B00080BD000080B582B000AF786039607B6884
:1015C00050229B5C012B01D102236CE07B685022EE
:1015D000012199547B681B689B68042213400BD03F
:1015E0007B685B6D20221A437B685A657B685022BA
:1015F00000219954012356E03B685B682C4A9342D2
:1016000028D07B681B687A681268916A3A68126809
:101610005203520B0A439A623B681A688023DB022A
:10162000134009D0234B234A1268802109040A433E
:101630001A600A2000F04AF93B681A6880239B026E
:1016400013402BD01B4B1B4A12688021C9030A434D
:101650001A6023E07B681B687A681268916A3A68AE
:1016600012685203520BD2430A409A623B681A68CE
:101670008023DB02134005D00E4B0E4A12680E4940
:101680000A401A603B681A6880239B02134005D009
:10169000084B084A126809490A401A607B685022C0
:1016A0000021995400231800BD4602B080BDC046F9
:1016B0000110000008270140FFFF7FFFFFFFBFFF71
:1016C00080B584B000AF78600023FB607B681B6846
:1016D0009B6803221340012B08D17B681B681B68A1
:1016E00001221340012B01D1012300E00023002B34
:1016F0003FD17B681B689B68204A13400DD07B68F4
:101700005B6D10221A437B685A657B689B6D0122D2
:101710001A437B689A6501232CE07B681B687A6812
:101720001268926801210A439A60012000F0CEF805
:10173000FFF768FC0300FB6014E0FFF763FC0200A6
:10174000FB68D31A0A2B0DD97B685B6D10221A43F4
:101750007B685A657B689B6D01221A437B689A659A
:10176000012307E07B681B681B6801221340012BE3
:10177000E3D100231800BD4604B080BD17000080EF
:1017800080B584B000AF78600023FB607B681B6885
:101790009B6803221340012B08D17B681B681B68E0
:1017A00001221340012B01D1012300E00023002B73
:1017B00041D07B681B689B6805221340012B10D128
:1017C0007B681B687A681268926802210A439A60F3
:1017D0007B681B6803221A60FFF714FC0300FB60A0
:1017E00022E07B685B6D10221A437B685A657B6838
:1017F0009B6D01221A437B689A6501231CE0FFF769
:1018000001FC0200FB68D31A0A2B0DD97B685B6DC3
:1018100010221A437B685A657B689B6D01221A432C
:101820007B689A65012307E07B681B689B6801223F
:101830001340012BE3D000231800BD4604B080BD47
:1018400080B584B000AF78600023FB607B681B68C4
:101850009B680422134034D07B681B689B68042279
:101860001340042B0DD17B681B689B680222134038
:1018700007D17B681B687A681268926810210A4356
:101880009A60FFF7BFFB0300FB6014E0FFF7BAFBB1
:101890000200FB68D31A0A2B0DD97B685B6D1022FE
:1018A0001A437B685A657B689B6D01221A437B68EB
:1018B0009A65012306E07B681B689B68042213403D
:1018C000E4D100231800BD4604B080BD80B584B0CB
:1018D00000AF78600A4B1B680A491800FEF714FC39
:1018E00003001A007B685343FB6002E0FB68013B86
:1018F000FB60FB68002BF9D1C046BD4604B080BD3B
:101900000000002040420F0080B582B000AF02000E
:10191000FB1D1A70FB1D1B787F2B09D8064BFA1D87
:10192000127811001F220A40012191400A001A601A
:10193000C046BD4602B080BD00E100E0B0B582B057
:1019400000AF02003960FB1D1A70FB1D1B787F2B56
:1019500028D82F4CFB1D1B785BB29B082C49FA1D25
:10196000127852B29208C03292005258F91D09788A
:10197000080003210140C900FF2088400100C9433D
:1019800011403A689201FF201040FA1D12781500AC
:1019900003222A40D200904002000A43C0339B0039
:1019A0001A5131E01B4CFB1D1B781A000F2313400A
:1019B000083B9908174AFB1D1B7818000F230340AA
:1019C000083B9B0806339B00D31804331B68FA1DA1
:1019D0001278100003220240D200FF209040020043
:1019E000D2431A403B689B01FF201840FB1D1B7827
:1019F0001D0003232B40DB00984003001A438B1D7E
:101A00009B00E31804331A60C046BD4602B0B0BD67
:101A100000E100E000ED00E080B582B000AF78604A
:101A20007B68013B0C4A934201D9012310E00B4B28
:101A30007A68013A5A6001235B4203211800FFF7DC
:101A40007DFF064B00229A60044B07221A60002398
:101A50001800BD4602B080BDFFFFFF0010E000E0AF
:101A600080B584B000AFB9607A600F23FB18021C08
:101A70001A70BA680F23FB181B785BB211001800AC
:101A8000FFF75CFFC046BD4604B080BD80B582B0A4
:101A900000AF0200FB1D1A70FB1D1B785BB2180023
:101AA000FFF732FFC046BD4602B080BD80B582B0B0
:101AB00000AF78607B681800FFF7AEFF03001800E6
:101AC000BD4602B080BD80B584B000AF78600F2302
:101AD000FB1800221A707B6825229B5CDBB2022B6C
:101AE00008D07B680422DA637B68242200219954A1
:101AF000012324E07B681B687A68126812680E2153
:101B00008A431A607B681B687A6812681268012130
:101B10008A431A607B681B6C7A68526C1C210A40ED
:101B2000012191400A005A607B68252201219954C5
:101B30007B682422002199540F23FB181B7818007E
:101B4000BD4604B080BD80B584B000AF78600F237F
:101B5000FB1800221A707B6825229B5CDBB2022BEB
:101B600007D07B680422DA630F23FB1801221A7066
:101B70002AE07B681B687A68126812680E218A4323
:101B80001A607B681B687A681268126801218A43B0
:101B90001A607B681B6C7A68526C1C210A40012118
:101BA00091400A005A607B682522012199547B6884
:101BB0002422002199547B689B6B002B04D07B6806
:101BC0009B6B7A68100098470F23FB181B7818004E
:101BD000BD4604B080BD000080B586B000AF78601F
:101BE000396000237B610023FB6000233B614FE1F0
:101BF0003B681B6801217A6991400A001340FB6031
:101C0000FB68002B00D140E13B685B68012B0BD0E7
:101C10003B685B68022B07D03B685B68112B03D0E5
:101C20003B685B68122B30D17B689B683B617B69AA
:101C30005B0003229A401300DA433B6913403B6187
:101C40003B68DA687B695B009A4013003A6913438A
:101C50003B617B683A699A607B685B683B61012203
:101C60007B699A401300DA433B6913403B613B6850
:101C70005B681B0901221A407B699A4013003A698C
:101C800013433B617B683A695A607B68DB683B6160
:101C90007B695B0003229A401300DA433B691340DF
:101CA0003B613B689A687B695B009A4013003A6924
:101CB00013433B617B683A69DA603B685B68022BDF
:101CC00003D03B685B68122B23D17B69DA087B6801
:101CD00008329200D3583B617B69072213409B0076
:101CE0000F229A401300DA433B6913403B613B6883
:101CF0001A697B6907210B409B009A4013003A69DF
:101D000013433B617B69DA087B68083292003969CA
:101D1000D1507B681B683B617B695B0003229A4062
:101D20001300DA433B6913403B613B685B68032265
:101D30001A407B695B009A4013003A6913433B6188
:101D40007B683A691A603B685A6880235B051340D8
:101D500000D19AE0544B544A526B01210A435A6312
:101D6000524A7B699B0802339B009B583B617B690D
:101D7000032213409B000F229A401300DA433B6971
:101D800013403B617A68A023DB059A4219D07B6837
:101D9000474A934213D07B68464A93420DD07B68F2
:101DA000454A934207D07B68444A934201D10523B8
:101DB00008E0062306E0032304E0022302E00123F7
:101DC00000E000237A6903210A40920093403A69B7
:101DD00013433B6135497B699B0802339B003A6999
:101DE0005A50374B1B683B61FB68DA433B69134031
:101DF0003B613B685A6880235B02134003D03A6919
:101E0000FB6813433B612E4B3A691A602C4B5B68AD
:101E10003B61FB68DA433B6913403B613B685A68AE
:101E200080239B02134003D03A69FB6813433B6154
:101E3000234B3A695A60224B9B683B61FB68DA434B
:101E40003B6913403B613B685A6880235B03134046
:101E500003D03A69FB6813433B61194B3A699A60B6
:101E6000174BDB683B61FB68DA433B6913403B611E
:101E70003B685A6880239B03134003D03A69FB6890
:101E800013433B610E4B3A69DA607B6901337B6136
:101E90003B681A687B69DA40131E00D0A8E6C0468A
:101EA000BD4606B080BDC0460010024000000140A3
:101EB0000004005000080050000C0050001C0050AE
:101EC0000004014080B582B000AF786008001100C6
:101ED000BB1C021C1A807B1C0A1C1A707B1C1B7802
:101EE000002B04D0BB1C1A887B689A6103E0BB1CE2
:101EF0001A887B689A62C046BD4602B080BD000069
:101F000090B58BB000AF78607B68002B02D10123C5
:101F100000F05AFBCE4BDB680C2213403B62CC4BEB
:101F2000DA6880235B021340FB617B681B68012237
:101F3000134000D17CE03B6A082B07D03B6A0C2B96
:101F400011D1FA6980235B029A420CD1C04B1A6806
:101F500080239B02134000D169E07B685B68002B03
:101F600065D1012330E37B685A6880235B029A4283
:101F700007D1B74BB64A1268802149020A431A605A
:101F800027E07B685A68A023DB029A420ED1B04B4F
:101F9000AF4A12688021C9020A431A60AC4BAC4AAE
:101FA0001268802149020A431A6012E0A84BA84A2D
:101FB0001268A8490A401A60A54B1A6880235B0280
:101FC0001340FB60FB68A24BA14A1268A2490A4079
:101FD0001A607B685B68002B14D0FFF713F80300CE
:101FE000BB6108E0FFF70EF80200BB69D31A642B4F
:101FF00001D90323E8E2964B1A6880239B02134021
:10200000F0D015E0FEF7FEFF0300BB6108E0FEF72D
:10201000F9FF0200BB69D31A642B01D90323D3E271
:102020008B4B1A6880239B021340F0D100E0C0461E
:102030007B681B680222134000D18BE07B68DB6861
:102040007B613B6A042B05D03B6A0C2B3FD1FB69BB
:10205000002B3CD17E4B1B680422134004D07B69CB
:10206000002B01D10123AFE2794A794B5B687B49B0
:1020700019407B681B691B020B435360744B744A05
:10208000126809218A4311007A690A431A6000F034
:10209000E9FB01006E4BDB681B090F221340704AFD
:1020A000D35C0A00DA406F4B1A606F4B1B68132237
:1020B000BC181800FEF760FF030023701323FB1801
:1020C0001B78002B46D01323FB181B787CE27B691E
:1020D000002B26D05E4B5E4A126809218A4311000C
:1020E0007A690A431A60FEF78DFF0300BB6108E0BE
:1020F000FEF788FF0200BB69D31A022B01D9032324
:1021000062E2534B1B6804221340F1D0504A504BFB
:102110005B68524919407B681B691B020B43536083
:1021200018E04B4B4A4A126801218A431A60FEF7B5
:1021300069FF0300BB6108E0FEF764FF0200BB69B2
:10214000D31A022B01D903233EE2414B1B68042220
:102150001340F1D17B681B681022134000D1A1E02D
:102160003B6A002B41D13A4B1A6880239B001340F5
:1021700005D07B689B69002B01D1012324E2344AFE
:10218000334B5B68394919407B681B6A0B435360CA
:102190002F4A2F4B5B681B02190A7B68DB691B0601
:1021A0000B4353607B681B6A5B0B01338022120276
:1021B0009A40274BDB681B090F210B402849CB5C59
:1021C000DA40284B1A60284B1B681322BC181800F1
:1021D000FEF7D2FE030023701323FB181B78002B9D
:1021E00060D01323FB181B78EEE17B689B69002B02
:1021F0003ED0174B164A1268802149000A431A60E4
:10220000FEF700FF0300BB6108E0FEF7FBFE0200E3
:10221000BB69D31A022B01D90323D5E10C4B1A68F1
:1022200080239B001340F0D0094A094B5B680F499B
:1022300019407B681B6A0B435360054A044B5B687B
:102240001B02190A7B68DB691B060B43536029E0FC
:1022500000100240FFFFFEFFFFFFFBFFFFE0FFFF5C
:10226000343E00080000002004000020FF1FFFFF94
:10227000BE4BBE4A1268BE490A401A60FEF7C2FE53
:102280000300BB6108E0FEF7BDFE0200BB69D31A84
:10229000022B01D9032397E1B44B1A6880239B00DA
:1022A0001340F0D17B681B680822134036D07B684E
:1022B0005B69002B19D0AD4BAC4A126D01210A436A
:1022C0001A65FEF79FFE0300BB6108E0FEF79AFE69
:1022D0000200BB69D31A022B01D9032374E1A34B7B
:1022E0001B6D02221340F1D018E0A04B9F4A126DE3
:1022F00001218A431A65FEF785FE0300BB6108E0F1
:10230000FEF780FE0200BB69D31A022B01D903231A
:102310005AE1964B1B6D02221340F1D17B681B687A
:102320000422134000D1AFE02723FB1800221A70CB
:102330008E4B9A6B80235B0513400AD18B4B8B4AE3
:10234000926B802149050A439A632723FB180122D7
:102350001A70884B1A6880235B0013401AD1854B92
:10236000844A1268802149000A431A60FEF74AFE37
:102370000300BB6108E0FEF745FE0200BB69D31A0B
:10238000642B01D903231FE17A4B1A6880235B0079
:102390001340F0D07B689A6880235B009A4207D193
:1023A000724B724A126D802149000A431A6531E06E
:1023B0007B689B68002B0CD16C4B6C4A126D6C498E
:1023C0000A401A65694B694A126D6B490A401A65E1
:1023D00020E07B689A68A023DB009A420ED1634B11
:1023E000624A126D8021C9000A431A655F4B5F4A39
:1023F000126D802149000A431A650BE05B4B5B4A72
:10240000126D5B490A401A65584B584A126D5A4979
:102410000A401A657B689B68002B15D0FEF7F2FD19
:102420000300BB6109E0FEF7EDFD0200BB69D31AB2
:10243000524A934201D90323C6E04C4B1A6D8023C4
:102440009B001340EFD014E0FEF7DCFD0300BB61FE
:1024500009E0FEF7D7FD0200BB69D31A474A934251
:1024600001D90323B0E0414B1A6D80239B00134038
:10247000EFD12723FB181B78012B05D13B4B3B4A9F
:10248000926B3F490A409A637B685B6A002B00D1DC
:1024900099E03B6A0C2B63D07B685B6A022B44D1CA
:1024A000324B324A126837490A401A60FEF7AAFDD9
:1024B0000300BB6108E0FEF7A5FD0200BB69D31A6B
:1024C000022B01D903237FE0284B1A6880239B0449
:1024D0001340F0D1254A254BDB682B4919407B6816
:1024E000986A7B68DB6A18437B681B6B03430B436A
:1024F000D3601E4B1D4A1268802149040A431A60AA
:10250000FEF780FD0300BB6108E0FEF77BFD0200E3
:10251000BB69D31A022B01D9032355E0134B1A6868
:1025200080239B041340F0D04DE0104B0F4A1268FB
:1025300014490A401A60FEF765FD0300BB6108E01C
:10254000FEF760FD0200BB69D31A022B01D90323F9
:102550003AE0064B1A6880239B041340F0D132E026
:102560007B685B6A012B11D101232DE00010024032
:10257000FFFEFFFF00700040FFFBFFFF881300001D
:10258000FFFFFFEFFFFFFFFEFFFF02FF104BDB68C7
:10259000FB61FA6980235B021A407B689B6A9A425E
:1025A0000FD1FA69F0239B031A407B68DB6A9A42D9
:1025B00007D1FA69C0231B041A407B681B6B9A423F
:1025C00001D0012300E000231800BD460BB090BDF0
:1025D0000010024090B585B000AF786039607B682C
:1025E000002B01D1012328E1964B1B6801221A40E0
:1025F0003B689A421ED2934B924A126801218A4349
:1026000011003A680A431A60FEF7FCFC0300FB6005
:1026100009E0FEF7F7FC0200FB68D31A8A4A9342EE
:1026200001D9032309E1874B1B6801221A403B684B
:102630009A42EED17B681B680222134009D0834A7C
:10264000824BDB68F0218B4319007B689B680B434E
:10265000D3607B681B680122134000D189E07B684E
:102660005B68022B07D1794B1A6880239B021340C9
:1026700020D10123E1E07B685B68032B07D1734B1A
:102680001A6880239B04134014D10123D5E07B6892
:102690005B68012B06D16D4B1B680422134009D1E6
:1026A0000123CAE0694B1A6880239B00134001D1C3
:1026B0000123C2E0654A654BDB6803218B431900A7
:1026C0007B685B680B43D360FEF79CFC0300FB60F8
:1026D0007B685B68022B11D109E0FEF793FC0200D6
:1026E000FB68D31A584A934201D90323A5E0574BFC
:1026F000DB680C221340082BEFD13AE07B685B6863
:10270000032B11D109E0FEF77DFC0200FB68D31A10
:102710004D4A934201D903238FE04C4BDB680C22D6
:1027200013400C2BEFD124E07B685B68012B1BD19D
:1027300009E0FEF767FC0200FB68D31A424A9342A5
:1027400001D9032379E0414BDB680C221340042BB1
:10275000EFD10EE0FEF756FC0200FB68D31A3A4AAE
:10276000934201D9032368E0384BDB680C22134005
:10277000F0D1344B1B6801221A403B689A421ED9A3
:10278000304B304A126801218A4311003A680A43EB
:102790001A60FEF737FC0300FB6009E0FEF732FC2D
:1027A0000200FB68D31A284A934201D9032344E06C
:1027B000244B1B6801221A403B689A42EED17B6889
:1027C0001B680422134008D0204A204BDB682049B4
:1027D00019407B68DB680B43D3607B681B68082269
:1027E000134009D0194A194BDB681A4919407B6814
:1027F0001B69DB000B43D36000F034F80100134B7E
:10280000DB681B090F221340134AD35C0A00DA402D
:10281000124B1A60124B1B680B22BC181800FEF7F3
:10282000ABFB030023700B23FB181B78002B03D09A
:102830000B23FB181B7800E000231800BD4605B0F1
:1028400090BDC046002002408813000000100240E6
:10285000FFF8FFFFFFC7FFFF343E00080000002025
:1028600004000020F0B58FB000AF4A4BDB68FB627C
:10287000FA6A0C231340082B0FD00C2B10D0042B1A
:1028800000D073E0434B1B681022134002D0424B30
:102890003B6379E0414B3B6376E0414B3B6373E044
:1028A000FB6A9A0C0F231A403E4B9B5CBB62FB6A8F
:1028B0009A0D0323134001337B62364BDA68802381
:1028C0005B02134019D0BB6ABB610023FB61344A31
:1028D0000023B869F969FDF7C3FC03000C00180078
:1028E00021007B6A3B6100237B613A697B69FDF7CC
:1028F00097FC03000C007B6335E0264B1B6810221D
:10290000134019D0BB6ABB600023FB60224A00233E
:10291000B868F968FDF7A4FC03000C00180021005A
:102920007B6A3B6000237B603A687B68FDF778FC3C
:1029300003000C007B6316E0BB6A1800002319003B
:10294000164A0023FDF78CFC03000C001800210040
:102950007B6A1D0000231E002A003300FDF760FC87
:1029600003000C007B637B6B3B630DE0094B5B68F2
:102970005B0B072213403B623B6A01338022120249
:102980009A4013003B63C0463B6B1800BD460FB036
:10299000F0BDC0460010024000093D000024F400D4
:1029A00000127A004C3E000880B500AF024B1B6855
:1029B0001800BD4680BDC0460000002080B500AFB5
:1029C000FFF7F2FF0100064BDB681B0A07221340EA
:1029D000044AD35CD9400B001800BD4680BDC046F8
:1029E00000100240443E000880B500AFFFF7DCFF56
:1029F0000100064BDB68DB0A07221340044AD35C64
:102A0000D9400B001800BD4680BDC04600100240F2
:102A1000443E000880B586B000AF78601723FB18ED
:102A200000221A707B681B682022134000D1C2E08C
:102A3000874B9A6B80235B0513400AD1844B844AF1
:102A4000926B802149050A439A631723FB180122E0
:102A50001A70804B1A6880235B0013401AD17D4B9B
:102A60007C4A1268802149000A431A60FEF7CAFABC
:102A700003003B6108E0FEF7C5FA02003B69D31A88
:102A8000642B01D90323DFE0724B1A6880235B00BB
:102A90001340F0D06E4B1A68C0239B031340FB60B9
:102AA0007B685A68C0239B031A40FB689A4213D084
:102AB0007B685A68C0239B021A40C0239B029A423B
:102AC0000AD1634B1A6880239B021A4080239B0221
:102AD0009A4201D10123B7E05D4B1A6DC0239B02DE
:102AE0001340FB60FB68002B3BD07B685A68C02317
:102AF0009B021A40FB689A4233D07B681B682022F5
:102B000013402ED0524B1B6D534A1340FB60504B69
:102B10004F4A126D802109030A431A654C4B4C4AF7
:102B2000126D4E490A401A65494BFA681A65FA68EF
:102B300080235B00134014D0FEF764FA03003B616E
:102B400009E0FEF75FFA02003B69D31A444A934258
:102B500001D9032378E03E4B1A6D80239B0013407C
:102B6000EFD07B685A68C0239B021A40C0239B02A7
:102B70009A420BD1364A364B1B683A4919407B685A
:102B80005868C0239B0303400B431360304A304B0B
:102B9000196D7B685868C0239B0203400B43136583
:102BA0001723FB181B78012B05D1294B284A926B60
:102BB0002D490A409A637B681B680122134009D0A3
:102BC000234A234BDB6C03218B4319007B689B68F2
:102BD0000B43D3647B681B680222134009D01C4A54
:102BE0001B4BDB6C0C218B4319007B68DB680B43B0
:102BF000D3647B681B680422134008D0144A144B2A
:102C0000DB6C1A4919407B681B690B43D3647B68F2
:102C10001B680822134008D00D4A0D4BDB6C144989
:102C200019407B685B690B43D3647B681B68802217
:102C3000134008D0064A064BDB6C0E4919407B68EE
:102C40009B690B43D36400231800BD4606B080BDCA
:102C50000010024000700040FFFFFCFFFFFFF7FF85
:102C600088130000FFFFCFFFFFFFFFEFFFF3FFFF21
:102C7000FFCFFFFFFFFFF3FF80B582B000AF7860AA
:102C80007B68002B01D1012344E07B689B6F002B04
:102C900007D17B687422002199547B681800FEF7E5
:102CA000D1F87B6824229A677B681B687A6812686F
:102CB000126801218A431A607B68180000F0EEFB5D
:102CC0000300012B01D1012324E07B685B6A002B08
:102CD00003D07B68180000F085FE7B681B687A686B
:102CE000126852680D490A405A607B681B687A680E
:102CF000126892682A218A439A607B681B687A6806
:102D00001268126801210A431A607B68180000F0FB
:102D100015FF03001800BD4602B080BDFFB7FFFFDE
:102D200080B58AB002AFF860B9603B60BB1D1A8005
:102D3000FB689B6F202B00D094E0BB68002B03D076
:102D4000BB1D1B88002B01D101238CE0FB689A6816
:102D500080235B019A4209D1FB681B69002B05D1D6
:102D6000BB680122134001D001237CE0FB68742280
:102D70009B5C012B01D1022375E0FB6874220121C9
:102D80009954FB68802200219950FB6821229A67A0
:102D9000FEF738F903007B61FB68BA1D50211288E9
:102DA0005A52FB68BA1D522112885A52FB689A681F
:102DB00080235B019A4208D1FB681B69002B04D178
:102DC0000023FB61BB68BB6103E0BB68FB610023C0
:102DD000BB61FB687422002199542BE07A69F86882
:102DE0003B68009313000022802100F0F1FE031ED7
:102DF00001D0032337E0FB69002B0AD1FB681B6875
:102E0000BA691288D205D20D9A62BB690233BB61DE
:102E100007E0FB681B68FA6912789A62FB69013364
:102E2000FB61FB6852229B5A9BB2013B99B2FB6843
:102E300052229952FB6852229B5A9BB2002BCDD151
:102E40007A69F8683B68009313000022402100F083
:102E5000BFFE031E01D0032305E0FB6820229A6712
:102E6000002300E002231800BD4608B080BD00002A
:102E700080B58AB002AFF860B9603B60BB1D1A80B4
:102E8000FB68DB6F202B00D0D9E0BB68002B03D0A0
:102E9000BB1D1B88002B01D10123D1E0FB689A6880
:102EA00080235B019A4209D1FB681B69002B05D185
:102EB000BB680122134001D00123C1E0FB687422EA
:102EC0009B5C012B01D10223BAE0FB687422012133
:102ED0009954FB68802200219950FB682222DA670E
:102EE000FB6800221A66FEF78DF803007B61FB6821
:102EF000BA1D582112885A52FB68BA1D5A211288ED
:102F00005A52FB689A6880235B019A420DD1FB6894
:102F10001B69002B04D1FB685C224B4999522EE0BF
:102F2000FB685C22FF21995229E0FB689B68002B1B
:102F30000DD1FB681B69002B04D1FB685C22FF21CB
:102F400099521CE0FB685C227F21995217E0FB68D4
:102F50009A6880235B059A420DD1FB681B69002BA0
:102F600004D1FB685C227F21995208E0FB685C2257
:102F70003F21995203E0FB685C2200219952122301
:102F8000FB18FA685C21525A1A80FB689A68802301
:102F90005B019A4208D1FB681B69002B04D1002316
:102FA000FB61BB68BB6103E0BB68FB610023BB61E5
:102FB000FB6874220021995436E07A69F8683B680E
:102FC000009313000022202100F002FE031E01D016
:102FD000032335E0FB69002B0ED1FB681B685B6A9D
:102FE0009BB21222BA18128813409AB2BB691A8097
:102FF000BB690233BB610EE0FB681B685B6ADBB236
:103000001222BA181288D2B21340DAB2FB691A70CF
:10301000FB690133FB61FB685A229B5A9BB2013B5F
:1030200099B2FB685A229952FB685A229B5A9BB26A
:10303000002BC2D1FB682022DA67002300E00223C4
:103040001800BD4608B080BDFF01000080B588B003
:1030500000AF78607B681B68DB69FB617B681B687D
:103060001B68BB617B681B689B687B61FB69B74A17
:1030700013403B613B69002B12D1FB6920221340B6
:103080000ED0BB69202213400AD07B685B6E002BF8
:1030900000D1D8E17B685B6E7A6810009847D2E176
:1030A0003B69002B00D1D9E07B690122134004D198
:1030B000BB69A74A134000D1D0E0FB69012213404D
:1030C00010D0BA6980235B0013400BD07B681B686B
:1030D00001221A627B6880229B5801221A437B6876
:1030E00080215A50FB69022213400FD07B690122D4
:1030F00013400BD07B681B6802221A627B68802217
:103100009B5804221A437B6880215A50FB69042291
:1031100013400FD07B69012213400BD07B681B68E2
:1031200004221A627B6880229B5802221A437B6821
:1031300080215A50FB690822134013D0BB6920221A
:10314000134003D17B69012213400BD07B681B68BD
:1031500008221A627B6880229B5808221A437B68E7
:1031600080215A50FA6980231B01134011D0BA699B
:103170008023DB0413400CD07B681B688022120183
:103180001A627B6880229B5820221A437B68802128
:103190005A507B6880229B58002B00D155E1FB6977
:1031A000202213400CD0BB692022134008D07B683A
:1031B0005B6E002B04D07B685B6E7A6810009847CA
:1031C0007B6880229B58FB607B681B689B68402261
:1031D0001340402B03D0FB682822134033D07B6878
:1031E000180000F073FD7B681B689B684022134049
:1031F000402B23D17B681B687A6812689268402153
:103200008A439A607B681B6F002B12D07B681B6F10
:10321000504A9A637B681B6F1800FEF794FC031EEC
:103220001AD07B681B6F9A6B7B681B6F18009047E6
:1032300012E07B68180000F01DF90DE07B681800B3
:1032400000F018F908E07B68180000F013F97B68BB
:10325000802200219950F8E0C046F6E07B681B6EA2
:10326000012B00D0BBE0FB691022134000D1B6E077
:10327000BB691022134000D1B1E07B681B681022AB
:103280001A627B681B689B6840221340402B65D103
:103290007B681B6F1B685A680A23FB181A800A2375
:1032A000FB181B88002B00D1D1E07B6858229B5A69
:1032B0000A22BA1812889A4200D3C8E07B680A2210
:1032C000BA185A2112885A527B681B6F1B681B68F8
:1032D000202213402AD17B681B687A681268126822
:1032E0001D490A401A607B681B687A6812689268F8
:1032F00001218A439A607B681B687A681268926829
:1033000040218A439A607B682022DA677B6800222A
:103310001A667B681B687A681268126810218A43F3
:103320001A607B681B6F1800FEF7CDFB7B68582284
:103330009A5A7B685A215B5A9BB2D31A9AB27B681D
:103340001100180000F09EF881E0C0460F08000050
:10335000200100042D3D0008FFFEFFFF7B6858227E
:10336000995A7B685A229B5A9AB20823FB188A1AE8
:103370001A807B685A229B5A9BB2002B00D168E0CE
:103380000823FB181B88002B63D07B681B687A68B6
:103390001268126832490A401A607B681B687A68B2
:1033A0001268926801218A439A607B682022DA675A
:1033B0007B6800221A667B6800225A667B681B685D
:1033C0007A681268126810218A431A600823FB1871
:1033D0001A887B681100180000F054F839E0FA6987
:1033E00080235B0313400ED07A698023DB031340F4
:1033F00009D07B681B68802252031A627B68180020
:1034000000F0C5FC28E0FB69802213400DD0BB69A9
:103410008022134009D07B689B6E002B1BD07B68F9
:103420009B6E7A681000984715E0FB6940221340B4
:1034300012D0BB69402213400ED07B68180000F008
:103440008CFCC04608E0C04606E0C04604E0C0462A
:1034500002E0C04600E0C046BD4608B080BDC046A0
:10346000DFFEFFFF80B582B000AF7860C046BD468A
:1034700002B080BD80B582B000AF7860C046BD4666
:1034800002B080BD80B582B000AF78600A00BB1C7E
:103490001A80C046BD4602B080BD0000B0B58EB0F7
:1034A00000AFF8611A2318229446BC4463440022FA
:1034B0001A70FB699A68FB691B691A43FB695B69AF
:1034C0001A43FB69DB6913437B63FB691B68FA6979
:1034D00012681268CA4911407A6B0A431A60FB6984
:1034E0001B68FA6912685268C6491140FA69D268C5
:1034F0000A435A60FB699B697B63FB691B68C24A8C
:10350000934204D0FB691B6A7A6B13437B63FB69AC
:103510001B68FA6912689268BC4911407A6B0A43C9
:103520009A60FB691B68BA4A934234D1B94BDB6C91
:1035300003221340012B15D004D3022B0AD0032BF6
:1035400018D01FE01B2318229446BC446344012278
:103550001A70ABE01B2318229446BC446344022239
:103560001A70A3E01B2318229446BC44634404222F
:103570001A709BE01B2318229446BC446344082223
:103580001A7093E01B2318229446BC446344102213
:103590001A70C0468AE0FB691B689F4A934237D184
:1035A0009C4BDB6C0C221340042B18D002D8002B50
:1035B00005D024E0082B0AD00C2B18D01FE01B23C9
:1035C00018229446BC44634400221A706EE01B2308
:1035D00018229446BC44634402221A7066E01B23FE
:1035E00018229446BC44634404221A705EE01B23F4
:1035F00018229446BC44634408221A7056E01B23E8
:1036000018229446BC44634410221A70C0464DE010
:10361000FB691B687C4A934241D17E4BDA6CC02324
:103620001B0113408022D20093421FD08022D2007F
:10363000934202D8002B09D028E080221201934245
:103640000CD0C0221201934218D01FE01B23182275
:103650009446BC44634400221A7027E01B231822BE
:103660009446BC44634402221A701FE01B231822B4
:103670009446BC44634404221A7017E01B231822AA
:103680009446BC44634408221A700FE01B2318229E
:103690009446BC44634410221A70C04606E01B23C3
:1036A00018229446BC44634410221A70FB691B68BC
:1036B000554A934200D085E01B2318229446BC440F
:1036C00063441B78022B0DD002DC002B05D01DE0DB
:1036D000042B12D0082B15D018E0FFF76FF9030068
:1036E000FB621DE04B4B1B681022134002D04B4B7A
:1036F000FB6215E04A4BFB6212E0FFF7B3F80300F0
:10370000FB620DE080231B02FB6209E00023FB62E9
:103710001A2318229446BC44634401221A70C046FE
:10372000FB6A002B00D143E1FB695A6813005B0080
:103730009A18FB6A9A4205D8FB695B681A03FB6A10
:103740009A4207D21A2318229446BC4463440122A9
:103750001A702DE1FB6A3B6100237B6139697A694C
:103760000B001B0E100005021D430B001C02FB6921
:103770005B685B08BB600023FB60B868F9680019F0
:103780006941FB695B683B6000237B603A687B684A
:10379000FCF746FD03000C00BB62BB6A214A934262
:1037A00008D9BB6A204A934204D8FB691B68BA6AED
:1037B000DA60FDE01A2318229446BC4463440122D7
:1037C0001A70F5E0FB69DA6980231B029A4200D087
:1037D00095E01B2318229446BC4463441B78082BB5
:1037E0003AD89A00114BD3181B689F46FFF7E6F8AA
:1037F0000300FB623AE0FFF7F7F80300FB6235E0F5
:10380000F369FFEFFFCFFFFF00480040FFF4FFFF29
:1038100000380140001002400044004000093D0013
:103820000024F400FF020000FFFF0F00583E0008D4
:10383000674B1B681022134002D0664BFB6215E0F9
:10384000654BFB6212E0FFF70DF80300FB620DE031
:1038500080231B02FB6209E00023FB621A2318226B
:103860009446BC44634401221A70C046FB6A002B94
:1038700000D19DE0FB6A5A00FB695B685B08D218C7
:10388000FB695B6819001000FCF73EFC03009BB26B
:10389000BB62BB6A0F2B2AD9BB6A504A934226D817
:1038A000BB6A9AB20E2318218C46BC4463440F2194
:1038B0008A431A80BB6A5B089BB20722134099B205
:1038C0000E2318229446BC4463440E2218208446DA
:1038D000BC44624412880A431A80FB691B680E22AA
:1038E00018218C46BC4462441288DA6060E01A23D6
:1038F00018229446BC44634401221A7058E01B23EA
:1039000018229446BC4463441B78082B22D89A00A2
:10391000334BD3181B689F46FFF750F80300FB6238
:1039200022E0FFF761F80300FB621DE0284B1B68F3
:103930001022134002D0274BFB6215E0264BFB629E
:1039400012E0FEF78FFF0300FB620DE080231B02F5
:10395000FB6209E00023FB621A2318229446BC4450
:10396000634401221A70C046FB6A002B20D0FB6919
:103970005B685A08FB6AD218FB695B681900100083
:10398000FCF7C2FB03009BB2BB62BB6A0F2B08D9DA
:10399000BB6A124A934204D8FB691B68BA6ADA60B0
:1039A00006E01A2318229446BC44634401221A708C
:1039B000FB6900225A66FB6900229A661A231822C4
:1039C0009446BC4463441B781800BD460EB0B0BD9D
:1039D0000010024000093D000024F400FFFF000039
:1039E0007C3E000880B582B000AF78607B685B6A7F
:1039F000012213400AD07B681B687A6812685268FB
:103A0000454911407A68926A0A435A607B685B6A4A
:103A1000022213400AD07B681B687A6812685268D9
:103A20003E4911407A68D26A0A435A607B685B6AF1
:103A3000042213400AD07B681B687A6812685268B7
:103A4000374911407A68126B0A435A607B685B6A97
:103A5000082213400AD07B681B687A681268526893
:103A6000304911407A68526B0A435A607B685B6A3E
:103A7000102213400AD07B681B687A68126892682B
:103A8000294911407A68926B0A439A607B685B6AA5
:103A9000202213400AD07B681B687A6812689268FB
:103AA000224911407A68D26B0A439A607B685B6A4C
:103AB000402213401BD07B681B687A6812685268EA
:103AC0001B4911407A68126C0A435A607B681A6C71
:103AD00080235B039A420AD17B681B687A6812686C
:103AE0005268144911407A68526C0A435A607B68E4
:103AF0005B6A802213400AD07B681B687A68126870
:103B000052680D4911407A68926C0A435A60C04667
:103B1000BD4602B080BDC046FFFFFDFFFFFFFEFFB8
:103B2000FFFFFBFFFF7FFFFFFFEFFFFFFFDFFFFF59
:103B3000FFFFEFFFFFFF9FFFFFFFF7FF80B586B09E
:103B400002AF78607B68802200219950FDF75AFA15
:103B50000300FB607B681B681B6808221340082B6E
:103B60000DD1FA68802399037868184B00931300ED
:103B7000002200F02DF8031E01D0032322E07B6811
:103B80001B681B6804221340042B0DD1FA688023A4
:103B9000D90378680D4B00931300002200F018F849
:103BA000031E01D003230DE07B6820229A677B6807
:103BB0002022DA677B6800221A667B687422002163
:103BC000995400231800BD4604B080BDFFFFFF01DB
:103BD00080B584B000AFF860B9603B60FB1D1A701F
:103BE0005EE0BB6901335BD0FDF70CFA02003B6875
:103BF000D21ABB699A4202D8BB69002B1BD1FB6861
:103C00001B68FA68126812682F490A401A60FB683C
:103C10001B68FA681268926801218A439A60FB68FF
:103C200020229A67FB682022DA67FB687422002151
:103C30009954032344E0FB681B681B68042213406B
:103C40002ED0FB681B68DA6980231B011A40802391
:103C50001B019A4224D1FB681B68802212011A6260
:103C6000FB681B68FA681268126817490A401A60F4
:103C7000FB681B68FA681268926801218A439A609F
:103C8000FB6820229A67FB682022DA67FB688022A3
:103C900020219950FB6874220021995403230FE0DE
:103CA000FB681B68DB69BA681A40BB68D31A5A42C2
:103CB0005341DBB21A00FB1D1B789A4291D00023BE
:103CC0001800BD4604B080BD5FFEFFFF80B582B026
:103CD00000AF78607B681B687A68126812681249C6
:103CE0000A401A607B681B687A6812689268012132
:103CF0008A439A607B681B6E012B07D17B681B6827
:103D00007A681268126810218A431A607B68202240
:103D1000DA677B6800221A667B6800225A66C04612
:103D2000BD4602B080BDC046DFFEFFFF80B584B057
:103D300000AF78607B689B6AFB60FB685A220021B9
:103D40009952FB68522200219952FB681800FFF734
:103D500091FBC046BD4604B080BD80B582B000AFC7
:103D600078607B681B687A681268126840218A4311
:103D70001A607B6820229A677B6800229A667B68BB
:103D80001800FFF76FFBC046BD4602B080BD80B58E
:103D900082B000AF7860C046BD4602B080BD000072
:103DA00070B500260C4D0D4C641BA410A64209D121
:103DB000002600F021F80A4D0A4C641BA410A6420C
:103DC00005D170BDB300EB5898470136EEE7B3005C
:103DD000EB5898470136F2E7A83E0008A83E0008D5
:103DE000A83E0008AC3E000803008218934200D1B0
:103DF000704719700133F9E7F8B5C046F8BC08BC44
:103E00009E467047F8B5C046F8BC08BC9E46704751
:103E100032060008300500084A050008640500085D
:103E20007E05000896050008CA050008FE05000882
:103E30001806000800000000000000000102030452
:103E40000607080900000000010203040304060835
:103E50000C10182030000000EC370008F63700087E
:103E6000303800085838000846380008583800082C
:103E70005838000858380008503800081839000829
:103E8000223900082C39000854390008423900084A
:103E90005439000854390008543900084C390008D6
:083EA00014C4FF7F01000000C3
:043EA800E900000825
:043EAC00C100000849
:0C3EB000000020000400000001000000E1
:040000050800048962
:00000001FF
